{
  "contractName": "CryptoAddict",
  "abi": [
    {
      "inputs": [
        {
          "internalType": "string",
          "name": "_name",
          "type": "string"
        },
        {
          "internalType": "string",
          "name": "_symbol",
          "type": "string"
        },
        {
          "internalType": "string",
          "name": "_initBaseURI",
          "type": "string"
        },
        {
          "internalType": "uint256",
          "name": "_maxSupply",
          "type": "uint256"
        }
      ],
      "stateMutability": "nonpayable",
      "type": "constructor"
    },
    {
      "anonymous": false,
      "inputs": [
        {
          "indexed": true,
          "internalType": "address",
          "name": "owner",
          "type": "address"
        },
        {
          "indexed": true,
          "internalType": "address",
          "name": "approved",
          "type": "address"
        },
        {
          "indexed": true,
          "internalType": "uint256",
          "name": "tokenId",
          "type": "uint256"
        }
      ],
      "name": "Approval",
      "type": "event"
    },
    {
      "anonymous": false,
      "inputs": [
        {
          "indexed": true,
          "internalType": "address",
          "name": "owner",
          "type": "address"
        },
        {
          "indexed": true,
          "internalType": "address",
          "name": "operator",
          "type": "address"
        },
        {
          "indexed": false,
          "internalType": "bool",
          "name": "approved",
          "type": "bool"
        }
      ],
      "name": "ApprovalForAll",
      "type": "event"
    },
    {
      "anonymous": false,
      "inputs": [
        {
          "indexed": true,
          "internalType": "address",
          "name": "previousOwner",
          "type": "address"
        },
        {
          "indexed": true,
          "internalType": "address",
          "name": "newOwner",
          "type": "address"
        }
      ],
      "name": "OwnershipTransferred",
      "type": "event"
    },
    {
      "anonymous": false,
      "inputs": [
        {
          "indexed": true,
          "internalType": "address",
          "name": "from",
          "type": "address"
        },
        {
          "indexed": true,
          "internalType": "address",
          "name": "to",
          "type": "address"
        },
        {
          "indexed": true,
          "internalType": "uint256",
          "name": "tokenId",
          "type": "uint256"
        }
      ],
      "name": "Transfer",
      "type": "event"
    },
    {
      "inputs": [
        {
          "internalType": "address",
          "name": "to",
          "type": "address"
        },
        {
          "internalType": "uint256",
          "name": "tokenId",
          "type": "uint256"
        }
      ],
      "name": "approve",
      "outputs": [],
      "stateMutability": "nonpayable",
      "type": "function"
    },
    {
      "inputs": [
        {
          "internalType": "address",
          "name": "owner",
          "type": "address"
        }
      ],
      "name": "balanceOf",
      "outputs": [
        {
          "internalType": "uint256",
          "name": "",
          "type": "uint256"
        }
      ],
      "stateMutability": "view",
      "type": "function"
    },
    {
      "inputs": [],
      "name": "baseExtension",
      "outputs": [
        {
          "internalType": "string",
          "name": "",
          "type": "string"
        }
      ],
      "stateMutability": "view",
      "type": "function"
    },
    {
      "inputs": [],
      "name": "baseURI",
      "outputs": [
        {
          "internalType": "string",
          "name": "",
          "type": "string"
        }
      ],
      "stateMutability": "view",
      "type": "function"
    },
    {
      "inputs": [],
      "name": "cost",
      "outputs": [
        {
          "internalType": "uint256",
          "name": "",
          "type": "uint256"
        }
      ],
      "stateMutability": "view",
      "type": "function"
    },
    {
      "inputs": [
        {
          "internalType": "uint256",
          "name": "tokenId",
          "type": "uint256"
        }
      ],
      "name": "getApproved",
      "outputs": [
        {
          "internalType": "address",
          "name": "",
          "type": "address"
        }
      ],
      "stateMutability": "view",
      "type": "function"
    },
    {
      "inputs": [
        {
          "internalType": "address",
          "name": "owner",
          "type": "address"
        },
        {
          "internalType": "address",
          "name": "operator",
          "type": "address"
        }
      ],
      "name": "isApprovedForAll",
      "outputs": [
        {
          "internalType": "bool",
          "name": "",
          "type": "bool"
        }
      ],
      "stateMutability": "view",
      "type": "function"
    },
    {
      "inputs": [],
      "name": "maxMintAmount",
      "outputs": [
        {
          "internalType": "uint256",
          "name": "",
          "type": "uint256"
        }
      ],
      "stateMutability": "view",
      "type": "function"
    },
    {
      "inputs": [],
      "name": "maxSupply",
      "outputs": [
        {
          "internalType": "uint256",
          "name": "",
          "type": "uint256"
        }
      ],
      "stateMutability": "view",
      "type": "function"
    },
    {
      "inputs": [],
      "name": "name",
      "outputs": [
        {
          "internalType": "string",
          "name": "",
          "type": "string"
        }
      ],
      "stateMutability": "view",
      "type": "function"
    },
    {
      "inputs": [],
      "name": "owner",
      "outputs": [
        {
          "internalType": "address",
          "name": "",
          "type": "address"
        }
      ],
      "stateMutability": "view",
      "type": "function"
    },
    {
      "inputs": [
        {
          "internalType": "uint256",
          "name": "tokenId",
          "type": "uint256"
        }
      ],
      "name": "ownerOf",
      "outputs": [
        {
          "internalType": "address",
          "name": "",
          "type": "address"
        }
      ],
      "stateMutability": "view",
      "type": "function"
    },
    {
      "inputs": [],
      "name": "paused",
      "outputs": [
        {
          "internalType": "bool",
          "name": "",
          "type": "bool"
        }
      ],
      "stateMutability": "view",
      "type": "function"
    },
    {
      "inputs": [],
      "name": "renounceOwnership",
      "outputs": [],
      "stateMutability": "nonpayable",
      "type": "function"
    },
    {
      "inputs": [],
      "name": "result",
      "outputs": [
        {
          "internalType": "uint256",
          "name": "",
          "type": "uint256"
        }
      ],
      "stateMutability": "view",
      "type": "function"
    },
    {
      "inputs": [
        {
          "internalType": "address",
          "name": "from",
          "type": "address"
        },
        {
          "internalType": "address",
          "name": "to",
          "type": "address"
        },
        {
          "internalType": "uint256",
          "name": "tokenId",
          "type": "uint256"
        }
      ],
      "name": "safeTransferFrom",
      "outputs": [],
      "stateMutability": "nonpayable",
      "type": "function"
    },
    {
      "inputs": [
        {
          "internalType": "address",
          "name": "from",
          "type": "address"
        },
        {
          "internalType": "address",
          "name": "to",
          "type": "address"
        },
        {
          "internalType": "uint256",
          "name": "tokenId",
          "type": "uint256"
        },
        {
          "internalType": "bytes",
          "name": "_data",
          "type": "bytes"
        }
      ],
      "name": "safeTransferFrom",
      "outputs": [],
      "stateMutability": "nonpayable",
      "type": "function"
    },
    {
      "inputs": [
        {
          "internalType": "address",
          "name": "operator",
          "type": "address"
        },
        {
          "internalType": "bool",
          "name": "approved",
          "type": "bool"
        }
      ],
      "name": "setApprovalForAll",
      "outputs": [],
      "stateMutability": "nonpayable",
      "type": "function"
    },
    {
      "inputs": [
        {
          "internalType": "bytes4",
          "name": "interfaceId",
          "type": "bytes4"
        }
      ],
      "name": "supportsInterface",
      "outputs": [
        {
          "internalType": "bool",
          "name": "",
          "type": "bool"
        }
      ],
      "stateMutability": "view",
      "type": "function"
    },
    {
      "inputs": [],
      "name": "symbol",
      "outputs": [
        {
          "internalType": "string",
          "name": "",
          "type": "string"
        }
      ],
      "stateMutability": "view",
      "type": "function"
    },
    {
      "inputs": [
        {
          "internalType": "uint256",
          "name": "index",
          "type": "uint256"
        }
      ],
      "name": "tokenByIndex",
      "outputs": [
        {
          "internalType": "uint256",
          "name": "",
          "type": "uint256"
        }
      ],
      "stateMutability": "view",
      "type": "function"
    },
    {
      "inputs": [
        {
          "internalType": "address",
          "name": "owner",
          "type": "address"
        },
        {
          "internalType": "uint256",
          "name": "index",
          "type": "uint256"
        }
      ],
      "name": "tokenOfOwnerByIndex",
      "outputs": [
        {
          "internalType": "uint256",
          "name": "",
          "type": "uint256"
        }
      ],
      "stateMutability": "view",
      "type": "function"
    },
    {
      "inputs": [],
      "name": "totalSupply",
      "outputs": [
        {
          "internalType": "uint256",
          "name": "",
          "type": "uint256"
        }
      ],
      "stateMutability": "view",
      "type": "function"
    },
    {
      "inputs": [
        {
          "internalType": "address",
          "name": "from",
          "type": "address"
        },
        {
          "internalType": "address",
          "name": "to",
          "type": "address"
        },
        {
          "internalType": "uint256",
          "name": "tokenId",
          "type": "uint256"
        }
      ],
      "name": "transferFrom",
      "outputs": [],
      "stateMutability": "nonpayable",
      "type": "function"
    },
    {
      "inputs": [
        {
          "internalType": "address",
          "name": "newOwner",
          "type": "address"
        }
      ],
      "name": "transferOwnership",
      "outputs": [],
      "stateMutability": "nonpayable",
      "type": "function"
    },
    {
      "inputs": [
        {
          "internalType": "address",
          "name": "",
          "type": "address"
        }
      ],
      "name": "whitelisted",
      "outputs": [
        {
          "internalType": "bool",
          "name": "",
          "type": "bool"
        }
      ],
      "stateMutability": "view",
      "type": "function"
    },
    {
      "inputs": [
        {
          "internalType": "uint256",
          "name": "_modulus",
          "type": "uint256"
        }
      ],
      "name": "randMod",
      "outputs": [],
      "stateMutability": "nonpayable",
      "type": "function"
    },
    {
      "inputs": [
        {
          "internalType": "address",
          "name": "_to",
          "type": "address"
        },
        {
          "internalType": "uint256",
          "name": "_mintAmount",
          "type": "uint256"
        }
      ],
      "name": "mint",
      "outputs": [],
      "stateMutability": "payable",
      "type": "function"
    },
    {
      "inputs": [
        {
          "internalType": "address",
          "name": "_owner",
          "type": "address"
        }
      ],
      "name": "walletOfOwner",
      "outputs": [
        {
          "internalType": "uint256[]",
          "name": "",
          "type": "uint256[]"
        }
      ],
      "stateMutability": "view",
      "type": "function"
    },
    {
      "inputs": [
        {
          "internalType": "uint256",
          "name": "tokenId",
          "type": "uint256"
        }
      ],
      "name": "tokenURI",
      "outputs": [
        {
          "internalType": "string",
          "name": "",
          "type": "string"
        }
      ],
      "stateMutability": "view",
      "type": "function"
    },
    {
      "inputs": [
        {
          "internalType": "uint256",
          "name": "_newCost",
          "type": "uint256"
        }
      ],
      "name": "setCost",
      "outputs": [],
      "stateMutability": "nonpayable",
      "type": "function"
    },
    {
      "inputs": [
        {
          "internalType": "uint256",
          "name": "_newmaxMintAmount",
          "type": "uint256"
        }
      ],
      "name": "setmaxMintAmount",
      "outputs": [],
      "stateMutability": "nonpayable",
      "type": "function"
    },
    {
      "inputs": [
        {
          "internalType": "string",
          "name": "_newBaseURI",
          "type": "string"
        }
      ],
      "name": "setBaseURI",
      "outputs": [],
      "stateMutability": "nonpayable",
      "type": "function"
    },
    {
      "inputs": [
        {
          "internalType": "string",
          "name": "_newBaseExtension",
          "type": "string"
        }
      ],
      "name": "setBaseExtension",
      "outputs": [],
      "stateMutability": "nonpayable",
      "type": "function"
    },
    {
      "inputs": [
        {
          "internalType": "bool",
          "name": "_state",
          "type": "bool"
        }
      ],
      "name": "pause",
      "outputs": [],
      "stateMutability": "nonpayable",
      "type": "function"
    },
    {
      "inputs": [
        {
          "internalType": "address",
          "name": "_user",
          "type": "address"
        }
      ],
      "name": "whitelistUser",
      "outputs": [],
      "stateMutability": "nonpayable",
      "type": "function"
    },
    {
      "inputs": [
        {
          "internalType": "address",
          "name": "_user",
          "type": "address"
        }
      ],
      "name": "removeWhitelistUser",
      "outputs": [],
      "stateMutability": "nonpayable",
      "type": "function"
    },
    {
      "inputs": [],
      "name": "withdraw",
      "outputs": [],
      "stateMutability": "payable",
      "type": "function"
    }
  ],
  "bytecode": "0x60c06040526005608081905264173539b7b760d91b60a09081526200002891600c9190620001af565b5066b1a2bc2ec50000600d556014600f556010805460ff19169055600060128190556013553480156200005a57600080fd5b50604051620028e1380380620028e18339810160408190526200007d9162000308565b83518490849062000096906000906020850190620001af565b508051620000ac906001906020840190620001af565b505050620000c9620000c3620000e160201b60201c565b620000e5565b620000d48262000137565b600e5550620003f0915050565b3390565b600a80546001600160a01b038381166001600160a01b0319831681179093556040519116919082907f8be0079c531659141344cd1fd0a4f28419497f9722a3daafe3b4186f6b6457e090600090a35050565b600a546001600160a01b03163314620001965760405162461bcd60e51b815260206004820181905260248201527f4f776e61626c653a2063616c6c6572206973206e6f7420746865206f776e6572604482015260640160405180910390fd5b8051620001ab90600b906020840190620001af565b5050565b828054620001bd906200039d565b90600052602060002090601f016020900481019282620001e157600085556200022c565b82601f10620001fc57805160ff19168380011785556200022c565b828001600101855582156200022c579182015b828111156200022c5782518255916020019190600101906200020f565b506200023a9291506200023e565b5090565b5b808211156200023a57600081556001016200023f565b600082601f83011262000266578081fd5b81516001600160401b0380821115620002835762000283620003da565b604051601f8301601f19908116603f01168101908282118183101715620002ae57620002ae620003da565b81604052838152602092508683858801011115620002ca578485fd5b8491505b83821015620002ed5785820183015181830184015290820190620002ce565b83821115620002fe57848385830101525b9695505050505050565b600080600080608085870312156200031e578384fd5b84516001600160401b038082111562000335578586fd5b620003438883890162000255565b9550602087015191508082111562000359578485fd5b620003678883890162000255565b945060408701519150808211156200037d578384fd5b506200038c8782880162000255565b606096909601519497939650505050565b600181811c90821680620003b257607f821691505b60208210811415620003d457634e487b7160e01b600052602260045260246000fd5b50919050565b634e487b7160e01b600052604160045260246000fd5b6124e180620004006000396000f3fe6080604052600436106102255760003560e01c80635c975abb1161012357806395d89b41116100ab578063d5abeb011161006f578063d5abeb0114610614578063d936547e1461062a578063da3ef23f1461065a578063e985e9c51461067a578063f2fde38b146106c357600080fd5b806395d89b411461058a578063a22cb4651461059f578063b88d4fde146105bf578063c6682862146105df578063c87b56dd146105f457600080fd5b806370a08231116100f257806370a08231146104f7578063715018a6146105175780637f00c7a61461052c578063805553e81461054c5780638da5cb5b1461056c57600080fd5b80635c975abb146104925780636352211e146104ac57806365372147146104cc5780636c0360eb146104e257600080fd5b80632f745c59116101b1578063438b630011610175578063438b6300146103e557806344a0d68a146104125780634a4c560d146104325780634f6ccce71461045257806355f804b31461047257600080fd5b80632f745c591461036a57806330cc7ae01461038a5780633ccfd60b146103aa57806340c10f19146103b257806342842e0e146103c557600080fd5b8063095ea7b3116101f8578063095ea7b3146102db57806313faede6146102fb57806318160ddd1461031f578063239c70ae1461033457806323b872dd1461034a57600080fd5b806301ffc9a71461022a57806302329a291461025f57806306fdde0314610281578063081812fc146102a3575b600080fd5b34801561023657600080fd5b5061024a61024536600461206b565b6106e3565b60405190151581526020015b60405180910390f35b34801561026b57600080fd5b5061027f61027a366004612051565b61070e565b005b34801561028d57600080fd5b50610296610754565b6040516102569190612270565b3480156102af57600080fd5b506102c36102be3660046120e9565b6107e6565b6040516001600160a01b039091168152602001610256565b3480156102e757600080fd5b5061027f6102f6366004612028565b61087b565b34801561030757600080fd5b50610311600d5481565b604051908152602001610256565b34801561032b57600080fd5b50600854610311565b34801561034057600080fd5b50610311600f5481565b34801561035657600080fd5b5061027f610365366004611f4b565b610991565b34801561037657600080fd5b50610311610385366004612028565b6109c2565b34801561039657600080fd5b5061027f6103a5366004611eff565b610a58565b61027f610aa3565b61027f6103c0366004612028565b610af3565b3480156103d157600080fd5b5061027f6103e0366004611f4b565b610c34565b3480156103f157600080fd5b50610405610400366004611eff565b610c4f565b604051610256919061222c565b34801561041e57600080fd5b5061027f61042d3660046120e9565b610d0d565b34801561043e57600080fd5b5061027f61044d366004611eff565b610d3c565b34801561045e57600080fd5b5061031161046d3660046120e9565b610d8a565b34801561047e57600080fd5b5061027f61048d3660046120a3565b610e2b565b34801561049e57600080fd5b5060105461024a9060ff1681565b3480156104b857600080fd5b506102c36104c73660046120e9565b610e6c565b3480156104d857600080fd5b5061031160135481565b3480156104ee57600080fd5b50610296610ee3565b34801561050357600080fd5b50610311610512366004611eff565b610f71565b34801561052357600080fd5b5061027f610ff8565b34801561053857600080fd5b5061027f6105473660046120e9565b61102c565b34801561055857600080fd5b5061027f6105673660046120e9565b61105b565b34801561057857600080fd5b50600a546001600160a01b03166102c3565b34801561059657600080fd5b506102966110cd565b3480156105ab57600080fd5b5061027f6105ba366004611fff565b6110dc565b3480156105cb57600080fd5b5061027f6105da366004611f86565b6111a1565b3480156105eb57600080fd5b506102966111d9565b34801561060057600080fd5b5061029661060f3660046120e9565b6111e6565b34801561062057600080fd5b50610311600e5481565b34801561063657600080fd5b5061024a610645366004611eff565b60116020526000908152604090205460ff1681565b34801561066657600080fd5b5061027f6106753660046120a3565b6112c4565b34801561068657600080fd5b5061024a610695366004611f19565b6001600160a01b03918216600090815260056020908152604080832093909416825291909152205460ff1690565b3480156106cf57600080fd5b5061027f6106de366004611eff565b611301565b60006001600160e01b0319821663780e9d6360e01b148061070857506107088261139c565b92915050565b600a546001600160a01b031633146107415760405162461bcd60e51b8152600401610738906122d5565b60405180910390fd5b6010805460ff1916911515919091179055565b606060008054610763906123e9565b80601f016020809104026020016040519081016040528092919081815260200182805461078f906123e9565b80156107dc5780601f106107b1576101008083540402835291602001916107dc565b820191906000526020600020905b8154815290600101906020018083116107bf57829003601f168201915b5050505050905090565b6000818152600260205260408120546001600160a01b031661085f5760405162461bcd60e51b815260206004820152602c60248201527f4552433732313a20617070726f76656420717565727920666f72206e6f6e657860448201526b34b9ba32b73a103a37b5b2b760a11b6064820152608401610738565b506000908152600460205260409020546001600160a01b031690565b600061088682610e6c565b9050806001600160a01b0316836001600160a01b031614156108f45760405162461bcd60e51b815260206004820152602160248201527f4552433732313a20617070726f76616c20746f2063757272656e74206f776e656044820152603960f91b6064820152608401610738565b336001600160a01b038216148061091057506109108133610695565b6109825760405162461bcd60e51b815260206004820152603860248201527f4552433732313a20617070726f76652063616c6c6572206973206e6f74206f7760448201527f6e6572206e6f7220617070726f76656420666f7220616c6c00000000000000006064820152608401610738565b61098c83836113ec565b505050565b61099b338261145a565b6109b75760405162461bcd60e51b81526004016107389061230a565b61098c838383611551565b60006109cd83610f71565b8210610a2f5760405162461bcd60e51b815260206004820152602b60248201527f455243373231456e756d657261626c653a206f776e657220696e646578206f7560448201526a74206f6620626f756e647360a81b6064820152608401610738565b506001600160a01b03919091166000908152600660209081526040808320938352929052205490565b600a546001600160a01b03163314610a825760405162461bcd60e51b8152600401610738906122d5565b6001600160a01b03166000908152601160205260409020805460ff19169055565b600a546001600160a01b03163314610acd5760405162461bcd60e51b8152600401610738906122d5565b60405133904780156108fc02916000818181858888f19350505050610af157600080fd5b565b6000610afe60085490565b60105490915060ff1615610b1157600080fd5b60008211610b1e57600080fd5b600f54821115610b2d57600080fd5b600e54610b3a838361235b565b1115610b4557600080fd5b60005b600e54601254604080514260208201526bffffffffffffffffffffffff193360601b169181019190915260548101919091526074016040516020818303038152906040528051906020012060001c610ba0919061243f565b6000818152600260205260409020549091506001600160a01b0316610b4857600a546001600160a01b03163314610c07573360009081526011602052604090205460ff161515600114610c075782600d54610bfb9190612387565b341015610c0757600080fd5b60015b838111610c2d57610c1b85836116fc565b80610c2581612424565b915050610c0a565b5050505050565b61098c838383604051806020016040528060008152506111a1565b60606000610c5c83610f71565b905060008167ffffffffffffffff811115610c8757634e487b7160e01b600052604160045260246000fd5b604051908082528060200260200182016040528015610cb0578160200160208202803683370190505b50905060005b82811015610d0557610cc885826109c2565b828281518110610ce857634e487b7160e01b600052603260045260246000fd5b602090810291909101015280610cfd81612424565b915050610cb6565b509392505050565b600a546001600160a01b03163314610d375760405162461bcd60e51b8152600401610738906122d5565b600d55565b600a546001600160a01b03163314610d665760405162461bcd60e51b8152600401610738906122d5565b6001600160a01b03166000908152601160205260409020805460ff19166001179055565b6000610d9560085490565b8210610df85760405162461bcd60e51b815260206004820152602c60248201527f455243373231456e756d657261626c653a20676c6f62616c20696e646578206f60448201526b7574206f6620626f756e647360a01b6064820152608401610738565b60088281548110610e1957634e487b7160e01b600052603260045260246000fd5b90600052602060002001549050919050565b600a546001600160a01b03163314610e555760405162461bcd60e51b8152600401610738906122d5565b8051610e6890600b906020840190611dc4565b5050565b6000818152600260205260408120546001600160a01b0316806107085760405162461bcd60e51b815260206004820152602960248201527f4552433732313a206f776e657220717565727920666f72206e6f6e657869737460448201526832b73a103a37b5b2b760b91b6064820152608401610738565b600b8054610ef0906123e9565b80601f0160208091040260200160405190810160405280929190818152602001828054610f1c906123e9565b8015610f695780601f10610f3e57610100808354040283529160200191610f69565b820191906000526020600020905b815481529060010190602001808311610f4c57829003601f168201915b505050505081565b60006001600160a01b038216610fdc5760405162461bcd60e51b815260206004820152602a60248201527f4552433732313a2062616c616e636520717565727920666f7220746865207a65604482015269726f206164647265737360b01b6064820152608401610738565b506001600160a01b031660009081526003602052604090205490565b600a546001600160a01b031633146110225760405162461bcd60e51b8152600401610738906122d5565b610af16000611716565b600a546001600160a01b031633146110565760405162461bcd60e51b8152600401610738906122d5565b600f55565b6012805490600061106b83612424565b9091555050601254604080514260208201526bffffffffffffffffffffffff193360601b1691810191909152605481019190915281906074016040516020818303038152906040528051906020012060001c6110c7919061243f565b60135550565b606060018054610763906123e9565b6001600160a01b0382163314156111355760405162461bcd60e51b815260206004820152601960248201527f4552433732313a20617070726f766520746f2063616c6c6572000000000000006044820152606401610738565b3360008181526005602090815260408083206001600160a01b03871680855290835292819020805460ff191686151590811790915590519081529192917f17307eab39ab6107e8899845ad3d59bd9653f200f220920489ca2b5937696c31910160405180910390a35050565b6111ab338361145a565b6111c75760405162461bcd60e51b81526004016107389061230a565b6111d384848484611768565b50505050565b600c8054610ef0906123e9565b6000818152600260205260409020546060906001600160a01b03166112655760405162461bcd60e51b815260206004820152602f60248201527f4552433732314d657461646174613a2055524920717565727920666f72206e6f60448201526e3732bc34b9ba32b73a103a37b5b2b760891b6064820152608401610738565b600061126f61179b565b9050600081511161128f57604051806020016040528060008152506112bd565b80611299846117aa565b600c6040516020016112ad9392919061212d565b6040516020818303038152906040525b9392505050565b600a546001600160a01b031633146112ee5760405162461bcd60e51b8152600401610738906122d5565b8051610e6890600c906020840190611dc4565b600a546001600160a01b0316331461132b5760405162461bcd60e51b8152600401610738906122d5565b6001600160a01b0381166113905760405162461bcd60e51b815260206004820152602660248201527f4f776e61626c653a206e6577206f776e657220697320746865207a65726f206160448201526564647265737360d01b6064820152608401610738565b61139981611716565b50565b60006001600160e01b031982166380ac58cd60e01b14806113cd57506001600160e01b03198216635b5e139f60e01b145b8061070857506301ffc9a760e01b6001600160e01b0319831614610708565b600081815260046020526040902080546001600160a01b0319166001600160a01b038416908117909155819061142182610e6c565b6001600160a01b03167f8c5be1e5ebec7d5bd14f71427d1e84f3dd0314c0f7b2291e5b200ac8c7c3b92560405160405180910390a45050565b6000818152600260205260408120546001600160a01b03166114d35760405162461bcd60e51b815260206004820152602c60248201527f4552433732313a206f70657261746f7220717565727920666f72206e6f6e657860448201526b34b9ba32b73a103a37b5b2b760a11b6064820152608401610738565b60006114de83610e6c565b9050806001600160a01b0316846001600160a01b031614806115195750836001600160a01b031661150e846107e6565b6001600160a01b0316145b8061154957506001600160a01b0380821660009081526005602090815260408083209388168352929052205460ff165b949350505050565b826001600160a01b031661156482610e6c565b6001600160a01b0316146115cc5760405162461bcd60e51b815260206004820152602960248201527f4552433732313a207472616e73666572206f6620746f6b656e2074686174206960448201526839903737ba1037bbb760b91b6064820152608401610738565b6001600160a01b03821661162e5760405162461bcd60e51b8152602060048201526024808201527f4552433732313a207472616e7366657220746f20746865207a65726f206164646044820152637265737360e01b6064820152608401610738565b6116398383836118c4565b6116446000826113ec565b6001600160a01b038316600090815260036020526040812080546001929061166d9084906123a6565b90915550506001600160a01b038216600090815260036020526040812080546001929061169b90849061235b565b909155505060008181526002602052604080822080546001600160a01b0319166001600160a01b0386811691821790925591518493918716917fddf252ad1be2c89b69c2b068fc378daa952ba7f163c4a11628f55a4df523b3ef91a4505050565b610e6882826040518060200160405280600081525061197c565b600a80546001600160a01b038381166001600160a01b0319831681179093556040519116919082907f8be0079c531659141344cd1fd0a4f28419497f9722a3daafe3b4186f6b6457e090600090a35050565b611773848484611551565b61177f848484846119af565b6111d35760405162461bcd60e51b815260040161073890612283565b6060600b8054610763906123e9565b6060816117ce5750506040805180820190915260018152600360fc1b602082015290565b8160005b81156117f857806117e281612424565b91506117f19050600a83612373565b91506117d2565b60008167ffffffffffffffff81111561182157634e487b7160e01b600052604160045260246000fd5b6040519080825280601f01601f19166020018201604052801561184b576020820181803683370190505b5090505b8415611549576118606001836123a6565b915061186d600a8661243f565b61187890603061235b565b60f81b81838151811061189b57634e487b7160e01b600052603260045260246000fd5b60200101906001600160f81b031916908160001a9053506118bd600a86612373565b945061184f565b6001600160a01b03831661191f5761191a81600880546000838152600960205260408120829055600182018355919091527ff3f7a9fe364faab93b216da50a3214154f22a0a2b415b23a84c8169e8b636ee30155565b611942565b816001600160a01b0316836001600160a01b031614611942576119428382611abc565b6001600160a01b0382166119595761098c81611b59565b826001600160a01b0316826001600160a01b03161461098c5761098c8282611c32565b6119868383611c76565b61199360008484846119af565b61098c5760405162461bcd60e51b815260040161073890612283565b60006001600160a01b0384163b15611ab157604051630a85bd0160e11b81526001600160a01b0385169063150b7a02906119f39033908990889088906004016121ef565b602060405180830381600087803b158015611a0d57600080fd5b505af1925050508015611a3d575060408051601f3d908101601f19168201909252611a3a91810190612087565b60015b611a97573d808015611a6b576040519150601f19603f3d011682016040523d82523d6000602084013e611a70565b606091505b508051611a8f5760405162461bcd60e51b815260040161073890612283565b805181602001fd5b6001600160e01b031916630a85bd0160e11b149050611549565b506001949350505050565b60006001611ac984610f71565b611ad391906123a6565b600083815260076020526040902054909150808214611b26576001600160a01b03841660009081526006602090815260408083208584528252808320548484528184208190558352600790915290208190555b5060009182526007602090815260408084208490556001600160a01b039094168352600681528383209183525290812055565b600854600090611b6b906001906123a6565b60008381526009602052604081205460088054939450909284908110611ba157634e487b7160e01b600052603260045260246000fd5b906000526020600020015490508060088381548110611bd057634e487b7160e01b600052603260045260246000fd5b6000918252602080832090910192909255828152600990915260408082208490558582528120556008805480611c1657634e487b7160e01b600052603160045260246000fd5b6001900381819060005260206000200160009055905550505050565b6000611c3d83610f71565b6001600160a01b039093166000908152600660209081526040808320868452825280832085905593825260079052919091209190915550565b6001600160a01b038216611ccc5760405162461bcd60e51b815260206004820181905260248201527f4552433732313a206d696e7420746f20746865207a65726f20616464726573736044820152606401610738565b6000818152600260205260409020546001600160a01b031615611d315760405162461bcd60e51b815260206004820152601c60248201527f4552433732313a20746f6b656e20616c7265616479206d696e746564000000006044820152606401610738565b611d3d600083836118c4565b6001600160a01b0382166000908152600360205260408120805460019290611d6690849061235b565b909155505060008181526002602052604080822080546001600160a01b0319166001600160a01b03861690811790915590518392907fddf252ad1be2c89b69c2b068fc378daa952ba7f163c4a11628f55a4df523b3ef908290a45050565b828054611dd0906123e9565b90600052602060002090601f016020900481019282611df25760008555611e38565b82601f10611e0b57805160ff1916838001178555611e38565b82800160010185558215611e38579182015b82811115611e38578251825591602001919060010190611e1d565b50611e44929150611e48565b5090565b5b80821115611e445760008155600101611e49565b600067ffffffffffffffff80841115611e7857611e7861247f565b604051601f8501601f19908116603f01168101908282118183101715611ea057611ea061247f565b81604052809350858152868686011115611eb957600080fd5b858560208301376000602087830101525050509392505050565b80356001600160a01b0381168114611eea57600080fd5b919050565b80358015158114611eea57600080fd5b600060208284031215611f10578081fd5b6112bd82611ed3565b60008060408385031215611f2b578081fd5b611f3483611ed3565b9150611f4260208401611ed3565b90509250929050565b600080600060608486031215611f5f578081fd5b611f6884611ed3565b9250611f7660208501611ed3565b9150604084013590509250925092565b60008060008060808587031215611f9b578081fd5b611fa485611ed3565b9350611fb260208601611ed3565b925060408501359150606085013567ffffffffffffffff811115611fd4578182fd5b8501601f81018713611fe4578182fd5b611ff387823560208401611e5d565b91505092959194509250565b60008060408385031215612011578182fd5b61201a83611ed3565b9150611f4260208401611eef565b6000806040838503121561203a578182fd5b61204383611ed3565b946020939093013593505050565b600060208284031215612062578081fd5b6112bd82611eef565b60006020828403121561207c578081fd5b81356112bd81612495565b600060208284031215612098578081fd5b81516112bd81612495565b6000602082840312156120b4578081fd5b813567ffffffffffffffff8111156120ca578182fd5b8201601f810184136120da578182fd5b61154984823560208401611e5d565b6000602082840312156120fa578081fd5b5035919050565b600081518084526121198160208601602086016123bd565b601f01601f19169290920160200192915050565b6000845160206121408285838a016123bd565b8551918401916121538184848a016123bd565b85549201918390600181811c908083168061216f57607f831692505b85831081141561218d57634e487b7160e01b88526022600452602488fd5b8080156121a157600181146121b2576121de565b60ff198516885283880195506121de565b60008b815260209020895b858110156121d65781548a8201529084019088016121bd565b505083880195505b50939b9a5050505050505050505050565b6001600160a01b038581168252841660208201526040810183905260806060820181905260009061222290830184612101565b9695505050505050565b6020808252825182820181905260009190848201906040850190845b8181101561226457835183529284019291840191600101612248565b50909695505050505050565b6020815260006112bd6020830184612101565b60208082526032908201527f4552433732313a207472616e7366657220746f206e6f6e20455243373231526560408201527131b2b4bb32b91034b6b83632b6b2b73a32b960711b606082015260800190565b6020808252818101527f4f776e61626c653a2063616c6c6572206973206e6f7420746865206f776e6572604082015260600190565b60208082526031908201527f4552433732313a207472616e736665722063616c6c6572206973206e6f74206f6040820152701ddb995c881b9bdc88185c1c1c9bdd9959607a1b606082015260800190565b6000821982111561236e5761236e612453565b500190565b60008261238257612382612469565b500490565b60008160001904831182151516156123a1576123a1612453565b500290565b6000828210156123b8576123b8612453565b500390565b60005b838110156123d85781810151838201526020016123c0565b838111156111d35750506000910152565b600181811c908216806123fd57607f821691505b6020821081141561241e57634e487b7160e01b600052602260045260246000fd5b50919050565b600060001982141561243857612438612453565b5060010190565b60008261244e5761244e612469565b500690565b634e487b7160e01b600052601160045260246000fd5b634e487b7160e01b600052601260045260246000fd5b634e487b7160e01b600052604160045260246000fd5b6001600160e01b03198116811461139957600080fdfea26469706673582212202696032eb955ae7cb606146e4223e879ceb2a90da9beccdef085e77bc6f3199064736f6c63430008040033",
  "immutableReferences": {},
  "source": "// SPDX-License-Identifier: GPL-3.0\r\n\r\n/**\r\n \r\n *Luna Landers by LunaLand (LLN)\r\n *\r\n * 10,000 Lunalanders flying through the Metaverse.\r\n*/\r\n\r\npragma solidity ^0.8.0;\r\n\r\nimport \"@openzeppelin/contracts/token/ERC721/extensions/ERC721Enumerable.sol\";\r\nimport \"@openzeppelin/contracts/access/Ownable.sol\";\r\n\r\ncontract CryptoAddict is ERC721Enumerable, Ownable {\r\n  using Strings for uint256;\r\n\r\n  string public baseURI;\r\n  string public baseExtension = \".json\";\r\n  uint256 public cost = 0.05 ether;\r\n  uint256 public maxSupply;\r\n  uint256 public maxMintAmount = 20;\r\n  bool public paused = false;\r\n  mapping(address => bool) public whitelisted;\r\n\r\n  constructor(\r\n    string memory _name,\r\n    string memory _symbol,\r\n    string memory _initBaseURI,\r\n    uint256 _maxSupply\r\n  ) ERC721(_name, _symbol) {\r\n     \r\n    setBaseURI(_initBaseURI);\r\n    maxSupply = _maxSupply;\r\n    //mint(msg.sender, 3);\r\n  }\r\n\r\n  // internal\r\n  function _baseURI() internal view virtual override returns (string memory) {\r\n    return baseURI;\r\n  }\r\n\r\n    uint randNone = 0;\r\n    \r\n    uint public result = 0;\r\n    \r\n    function randMod(uint _modulus) external {\r\n        randNone++;\r\n        result = uint(keccak256(abi.encodePacked(block.timestamp, msg.sender, randNone))) % _modulus;\r\n    }\r\n    \r\n  // public\r\n  function mint(address _to, uint256 _mintAmount) public payable {\r\n    uint256 supply = totalSupply();\r\n    require(!paused);\r\n    require(_mintAmount > 0);\r\n    require(_mintAmount <= maxMintAmount);\r\n    require(supply + _mintAmount <= maxSupply);\r\n\r\n    uint256 editionToMint;\r\n    \r\n    do{\r\n         editionToMint = uint(keccak256(abi.encodePacked(block.timestamp, msg.sender, randNone))) % maxSupply;\r\n    }while(_exists(editionToMint));\r\n    \r\n    if (msg.sender != owner()) {\r\n        if(whitelisted[msg.sender] != true) {\r\n          require(msg.value >= cost * _mintAmount);\r\n        }\r\n    }\r\n\r\n    for (uint256 i = 1; i <= _mintAmount; i++) {\r\n      _safeMint(_to, editionToMint);\r\n    }\r\n  }\r\n\r\n  function walletOfOwner(address _owner)\r\n    public\r\n    view\r\n    returns (uint256[] memory)\r\n  {\r\n    uint256 ownerTokenCount = balanceOf(_owner);\r\n    uint256[] memory tokenIds = new uint256[](ownerTokenCount);\r\n    for (uint256 i; i < ownerTokenCount; i++) {\r\n      tokenIds[i] = tokenOfOwnerByIndex(_owner, i);\r\n    }\r\n    return tokenIds;\r\n  }\r\n\r\n  function tokenURI(uint256 tokenId)\r\n    public\r\n    view\r\n    virtual\r\n    override\r\n    returns (string memory)\r\n  {\r\n    require(\r\n      _exists(tokenId),\r\n      \"ERC721Metadata: URI query for nonexistent token\"\r\n    );\r\n\r\n    string memory currentBaseURI = _baseURI();\r\n    return bytes(currentBaseURI).length > 0\r\n        ? string(abi.encodePacked(currentBaseURI, tokenId.toString(), baseExtension))\r\n        : \"\";\r\n  }\r\n\r\n  //only owner\r\n  function setCost(uint256 _newCost) public onlyOwner() {\r\n    cost = _newCost;\r\n  }\r\n\r\n  function setmaxMintAmount(uint256 _newmaxMintAmount) public onlyOwner() {\r\n    maxMintAmount = _newmaxMintAmount;\r\n  }\r\n\r\n  function setBaseURI(string memory _newBaseURI) public onlyOwner {\r\n    baseURI = _newBaseURI;\r\n  }\r\n\r\n  function setBaseExtension(string memory _newBaseExtension) public onlyOwner {\r\n    baseExtension = _newBaseExtension;\r\n  }\r\n\r\n  function pause(bool _state) public onlyOwner {\r\n    paused = _state;\r\n  }\r\n \r\n function whitelistUser(address _user) public onlyOwner {\r\n    whitelisted[_user] = true;\r\n  }\r\n \r\n  function removeWhitelistUser(address _user) public onlyOwner {\r\n    whitelisted[_user] = false;\r\n  }\r\n\r\n  function withdraw() public payable onlyOwner {\r\n    require(payable(msg.sender).send(address(this).balance));\r\n  }\r\n}",
  "sourcePath": "C:/Users/Hicham/Documents/Projects/frontend_base_dapp/example_nft_minter/contracts/SmartContract.sol",
  "compiler": {
    "name": "solc",
    "version": "0.8.4+commit.c7e474f2.Emscripten.clang"
  },
  "schemaVersion": "3.4.1",
  "updatedAt": "2021-09-05T22:18:18.505Z",
  "devdoc": {
    "kind": "dev",
    "methods": {
      "approve(address,uint256)": {
        "details": "See {IERC721-approve}."
      },
      "balanceOf(address)": {
        "details": "See {IERC721-balanceOf}."
      },
      "getApproved(uint256)": {
        "details": "See {IERC721-getApproved}."
      },
      "isApprovedForAll(address,address)": {
        "details": "See {IERC721-isApprovedForAll}."
      },
      "name()": {
        "details": "See {IERC721Metadata-name}."
      },
      "owner()": {
        "details": "Returns the address of the current owner."
      },
      "ownerOf(uint256)": {
        "details": "See {IERC721-ownerOf}."
      },
      "renounceOwnership()": {
        "details": "Leaves the contract without owner. It will not be possible to call `onlyOwner` functions anymore. Can only be called by the current owner. NOTE: Renouncing ownership will leave the contract without an owner, thereby removing any functionality that is only available to the owner."
      },
      "safeTransferFrom(address,address,uint256)": {
        "details": "See {IERC721-safeTransferFrom}."
      },
      "safeTransferFrom(address,address,uint256,bytes)": {
        "details": "See {IERC721-safeTransferFrom}."
      },
      "setApprovalForAll(address,bool)": {
        "details": "See {IERC721-setApprovalForAll}."
      },
      "supportsInterface(bytes4)": {
        "details": "See {IERC165-supportsInterface}."
      },
      "symbol()": {
        "details": "See {IERC721Metadata-symbol}."
      },
      "tokenByIndex(uint256)": {
        "details": "See {IERC721Enumerable-tokenByIndex}."
      },
      "tokenOfOwnerByIndex(address,uint256)": {
        "details": "See {IERC721Enumerable-tokenOfOwnerByIndex}."
      },
      "tokenURI(uint256)": {
        "details": "See {IERC721Metadata-tokenURI}."
      },
      "totalSupply()": {
        "details": "See {IERC721Enumerable-totalSupply}."
      },
      "transferFrom(address,address,uint256)": {
        "details": "See {IERC721-transferFrom}."
      },
      "transferOwnership(address)": {
        "details": "Transfers ownership of the contract to a new account (`newOwner`). Can only be called by the current owner."
      }
    },
    "version": 1
  },
  "userdoc": {
    "kind": "user",
    "methods": {},
    "version": 1
  }
}